:020000040800F2
:10000000005000207D280008A9210008B121000827
:10001000B9210008C1210008C92100080000000022
:10002000000000000000000000000000D1210008D6
:10003000DD21000800000000E9210008F52100088A
:10004000C5280008C5280008C5280008C5280008DC
:10005000C5280008C5280008C5280008C5280008CC
:10006000C5280008C5280008C52800080122000886
:10007000C5280008C528000815220008C528000862
:10008000C5280008C5280008C5280008C52800089C
:10009000C5280008C5280008C5280008C52800088C
:1000A000C5280008C5280008C5280008C52800087C
:1000B000C5280008C5280008C5280008C52800086C
:1000C000C5280008C5280008C5280008C52800085C
:1000D000C5280008C5280008C5280008C52800084C
:1000E000C5280008C5280008C52800080000000031
:1000F0000000000000000000000000000000000000
:0C01000000000000000000005FF808F1A3
:1001100010B5054C237833B9044B13B10448AFF341
:1001200000800123237010BD0802002000000000A1
:1001300068B0000808B5034B1BB103490348AFF38F
:10014000008008BD000000000C02002068B000081C
:10015000034613F8012B002AFBD1181A0138704707
:1001600081F0004102E000BF83F0004330B54FEA68
:1001700041044FEA430594EA050F08BF90EA020FD5
:100180001FBF54EA000C55EA020C7FEA645C7FEA68
:10019000655C00F0E2804FEA5454D4EB5555B8BF8B
:1001A0006D420CDD2C4480EA020281EA030382EAFC
:1001B000000083EA010180EA020281EA0303362D8E
:1001C00088BF30BD11F0004F4FEA01314FF4801C61
:1001D0004CEA113102D0404261EB410113F0004F73
:1001E0004FEA03334CEA133302D0524263EB43032A
:1001F00094EA050F00F0A780A4F10104D5F1200EC8
:100200000DDB02FA0EFC22FA05F2801841F1000122
:1002100003FA0EF2801843FA05F359410EE0A5F1F6
:1002200020050EF1200E012A03FA0EFC28BF4CF027
:10023000020C43FA05F3C01851EBE37101F00045DD
:1002400007D54FF0000EDCF1000C7EEB00006EEBEA
:100250000101B1F5801F1BD3B1F5001F0CD3490874
:100260005FEA30004FEA3C0C04F101044FEA4452CB
:1002700012F5800F80F09A80BCF1004F08BF5FEA52
:10028000500C50F1000041EB045141EA050130BD32
:100290005FEA4C0C404141EB0101013C28BFB1F544
:1002A000801FE9D291F0000F04BF01460020B1FA8F
:1002B00081F308BF2033A3F10B03B3F120020CDA62
:1002C0000C3208DD02F1140CC2F10C0201FA0CF040
:1002D00021FA02F10CE002F11402D8BFC2F1200CA5
:1002E00001FA02F120FA0CFCDCBF41EA0C0190405B
:1002F000E41AA2BF01EB0451294330BD6FEA0404A4
:100300001F3C1CDA0C340EDC04F11404C4F120028E
:1003100020FA04F001FA02F340EA030021FA04F3A0
:1003200045EA030130BDC4F10C04C4F1200220FAF7
:1003300002F001FA04F340EA0300294630BD21FA35
:1003400004F0294630BD94F0000F83F4801306BFFB
:1003500081F480110134013D4EE77FEA645C18BFEF
:100360007FEA655C29D094EA050F08BF90EA020F86
:1003700005D054EA000C04BF1946104630BD91EA7E
:10038000030F1EBF0021002030BD5FEA545C05D181
:100390004000494128BF41F0004130BD14F58004C0
:1003A0003CBF01F5801130BD01F0004545F0FE4134
:1003B00041F470014FF0000030BD7FEA645C1ABF69
:1003C000194610467FEA655C1CBF0B46024650EAA0
:1003D000013406BF52EA033591EA030F41F40021CC
:1003E00030BD00BF90F0000F04BF0021704730B552
:1003F0004FF4806404F132044FF000054FF0000127
:1004000050E700BF90F0000F04BF0021704730B5E7
:100410004FF4806404F1320410F0004548BF4042BC
:100420004FF000013EE700BF42004FEAE2014FEA11
:1004300031014FEA02701FBF12F07F4393F07F4FEC
:1004400081F06051704732F07F4208BF704793F0EF
:100450007F4F04BF41F40021704730B54FF4607402
:1004600001F0004521F000411CE700BF50EA010205
:1004700008BF704730B54FF000050AE050EA0102AE
:1004800008BF704730B511F0004502D5404261EB1E
:1004900041014FF4806404F132045FEA915C3FF45F
:1004A000D8AE4FF003025FEADC0C18BF03325FEAFC
:1004B000DC0C18BF033202EBDC02C2F1200300FAAD
:1004C00003FC20FA02F001FA03FE40EA0E0021FAD2
:1004D00002F11444BDE600BF70B54FF0FF0C4CF4C0
:1004E000E06C1CEA11541DBF1CEA135594EA0C0F72
:1004F00095EA0C0F00F0DEF82C4481EA030621EAAD
:100500004C5123EA4C5350EA013518BF52EA0335E7
:1005100041F4801143F4801338D0A0FB02CE4FF099
:100520000005E1FB02E506F00042E0FB03E54FF0C9
:100530000006E1FB03569CF0000F18BF4EF0010EC1
:10054000A4F1FF04B6F5007F64F5407404D25FEABD
:100550004E0E6D4146EB060642EAC62141EA555170
:100560004FEAC52040EA5E504FEACE2EB4F1FD0CB2
:1005700088BFBCF5E06F1ED8BEF1004F08BF5FEA30
:10058000500E50F1000041EB045170BD06F00046E2
:1005900046EA010140EA020081EA0301B4EB5C048F
:1005A000C2BFD4EB0C0541EA045170BD41F4801187
:1005B0004FF0000E013C00F3AB8014F1360FDEBFAC
:1005C000002001F0004170BDC4F10004203C35DA88
:1005D0000C341BDC04F11404C4F1200500FA05F30B
:1005E00020FA04F001FA05F240EA020001F00042AC
:1005F00021F0004110EBD37021FA04F642EB060122
:100600005EEA430E08BF20EAD37070BDC4F10C044B
:10061000C4F1200500FA04F320FA05F001FA04F20F
:1006200040EA020001F0004110EBD37041F10001FB
:100630005EEA430E08BF20EAD37070BDC4F1200506
:1006400000FA05F24EEA020E20FA04F301FA05F26E
:1006500043EA020321FA04F001F0004121FA04F216
:1006600020EA020000EBD3705EEA430E08BF20EAE6
:10067000D37070BD94F0000F0FD101F00046400020
:1006800041EB010111F4801F08BF013CF7D041EAA2
:10069000060195F0000F18BF704703F000465200A6
:1006A00043EB030313F4801F08BF013DF7D043EA77
:1006B0000603704794EA0C0F0CEA135518BF95EA2D
:1006C0000C0F0CD050EA410618BF52EA4306D1D1B4
:1006D00081EA030101F000414FF0000070BD50EAD3
:1006E000410606BF1046194652EA430619D094EA5D
:1006F0000C0F02D150EA013613D195EA0C0F05D147
:1007000052EA03361CBF104619460AD181EA03019A
:1007100001F0004141F0FE4141F470014FF0000052
:1007200070BD41F0FE4141F4780170BD70B54FF0ED
:10073000FF0C4CF4E06C1CEA11541DBF1CEA13556D
:1007400094EA0C0F95EA0C0F00F0A7F8A4EB05044F
:1007500081EA030E52EA03354FEA013100F0888046
:100760004FEA03334FF0805545EA131343EA12630F
:100770004FEA022245EA111545EA10654FEA0026C4
:100780000EF000419D4208BF964244F1FD0404F57D
:10079000407402D25B084FEA3202B61A65EB0305D9
:1007A0005B084FEA32024FF480104FF4002CB6EB96
:1007B000020E75EB030E22BFB61A754640EA0C0016
:1007C0005B084FEA3202B6EB020E75EB030E22BF56
:1007D000B61A754640EA5C005B084FEA3202B6EB97
:1007E000020E75EB030E22BFB61A754640EA9C0056
:1007F0005B084FEA3202B6EB020E75EB030E22BF26
:10080000B61A754640EADC0055EA060E18D04FEAE3
:10081000051545EA16754FEA06164FEAC30343EA83
:1008200052734FEAC2025FEA1C1CC0D111F4801F50
:100830000BD141EA00014FF000004FF0004CB6E749
:1008400011F4801F04BF01430020B4F1FD0C88BFE8
:10085000BCF5E06F3FF6AFAEB5EB030C04BFB6EBF3
:10086000020C5FEA500C50F1000041EB045170BDE6
:100870000EF0004E4EEA113114EB5C04C2BFD4EB13
:100880000C0541EA045170BD41F480114FF0000E97
:10089000013C90E645EA060E8DE60CEA135594EA13
:1008A0000C0F08BF95EA0C0F3FF43BAF94EA0C0F16
:1008B0000AD150EA01347FF434AF95EA0C0F7FF48B
:1008C00025AF104619462CE795EA0C0F06D152EADF
:1008D00003353FF4FDAE1046194622E750EA4106C3
:1008E00018BF52EA43067FF4C5AE50EA41047FF4D4
:1008F0000DAF52EA43057FF4EBAE12E74FF0FF3C39
:1009000006E000BF4FF0010C02E000BF4FF0010C09
:100910004DF804CD4FEA410C7FEA6C5C4FEA430C82
:1009200018BF7FEA6C5C1BD001B050EA410C0CBFD1
:1009300052EA430C91EA030F02BF90EA020F002033
:10094000704710F1000F91EA030F58BF994208BF9A
:1009500090422CBFD8176FEAE37040F00100704757
:100960004FEA410C7FEA6C5C02D150EA013C07D1AE
:100970004FEA430C7FEA6C5CD6D152EA033CD3D0F9
:100980005DF8040B704700BF8446104662468C46F3
:100990001946634600E000BF01B5FFF7B7FF002826
:1009A00048BF10F1000F01BD4DF808EDFFF7F4FF4F
:1009B0000CBF012000205DF808FB00BF4DF808EDDA
:1009C000FFF7EAFF34BF012000205DF808FB00BFFD
:1009D0004DF808EDFFF7E0FF94BF012000205DF81F
:1009E00008FB00BF4DF808EDFFF7CEFF94BF0120D4
:1009F00000205DF808FB00BF4DF808EDFFF7C4FFCD
:100A000034BF012000205DF808FB00BF4FEA410C15
:100A10007FEA6C5C02D150EA013C0AD14FEA430CF8
:100A20007FEA6C5C02D152EA033C02D14FF0000035
:100A300070474FF0010070474FEA410212F5001273
:100A400015D211D56FF47873B3EB625212D94FEA15
:100A5000C12343F0004343EA505311F0004F23FAFF
:100A600002F018BF404270474FF00000704750EA54
:100A7000013005D111F0004008BF6FF00040704711
:100A80004FF00000704700BF4A0011D212F500126B
:100A900011D20DD56FF47873B3EB62520ED44FEAD6
:100AA000C12343F0004343EA505323FA02F0704756
:100AB0004FF00000704750EA013002D14FF0FF3094
:100AC00070474FF0000070474FEA4102B2F1E04337
:100AD00024BFB3F5001CDCF1FE5C0DD901F0004C25
:100AE0004FEAC0024CEA5070B2F1004F40EB830075
:100AF00008BF20F00100704711F0804F21D113F1A1
:100B00003872BCBF01F00040704741F480114FEAD9
:100B10005252C2F11802C2F1200C10FA0CF320FA62
:100B200002F018BF40F001004FEAC1234FEAD3237F
:100B300003FA0CFC40EA0C0023FA02F34FEA4303E9
:100B4000CCE77FEA625307D150EA01331EBF4FF072
:100B5000FE4040F44000704701F0004040F0FE408D
:100B600040F40000704700BF38B50022002304465F
:100B70000D46FFF723FF28B920462946BDE8384037
:100B800000F00AB8204605F1004100F005F84042A7
:100B900061EB410138BD00BFD0B500220B4B0646CA
:100BA0000F46FFF799FCFFF76FFF0446FFF71AFCAB
:100BB0000022074BFFF790FC02460B4630463946B1
:100BC000FFF7D2FAFFF760FF2146D0BD0000F03DED
:100BD0000000F04180B582B000AF00F089FB0A232D
:100BE00000222B492B4800F0D7FB00F003F900F05E
:100BF00035FA00F049FD00F0D3FC0D21264800F045
:100C000041F903461A46254B1A700D21224800F07F
:100C10006DF903461A46224B1A7000237B6007E0E9
:100C20007A6820497B6841F823207B6801337B6028
:100C30007B68FE2BF4DD01F09FFE03461A4A136029
:100C400018491A4A4FF48063194802F00FFC09E072
:100C500001F092FE0246144B1B68D21A154B1B681A
:100C60009A4206D8144B1B6803F00203002BEFD006
:100C700000E000BF08237B807B881A460F490020D4
:100C800000F0C4F900F07EF800BF0837BD4680BD13
:100C9000540F00202C0A0020000000202402002015
:100CA0002502002028020020280A00202806002013
:100CB0008C0F0020140000200000024018000020CB
:100CC00080B500AF00F048FB00F004F800F084F8B5
:100CD00000BF80BD80B500AF4FF4FA7000F056F948
:100CE000244B1A78597809020A439B781B041A434B
:100CF000002362F317031946012000F035FC4FF47E
:100D0000FA7000F043F91C4B1A78597809020A432B
:100D10009B781B041A43002362F317031946012032
:100D200000F022FC4FF4FA7000F030F9134B1A78FF
:100D3000597809020A439B781B041A43002362F383
:100D400017031946012000F00FFC4FF4FA7000F071
:100D50001DF90B4B1A78597809020A439B781B043A
:100D60001A43002362F317031946012000F0FCFB2D
:100D700000BF80BD30B1000838B1000834B10008B0
:100D80003CB1000880B582B000AF00F0AFFC7860E5
:100D900079680D4800F0A2FE002000F0F1FC052269
:100DA00000210A4800F0A4FD05220021084800F0B7
:100DB0004BFE074B1B781946064800F08FFE00BF1C
:100DC0000837BD4680BD00BFF4B000082C000020ED
:100DD000580A002004B1000880B500AF4FF4FA7043
:100DE00000F0D4F8024800F031FC00BF80BD00BF25
:100DF00010B1000880B500AF034802F005F90248C1
:100E000001F0C0FE00BF80BD240F002080B483B07D
:100E100000AF1A4B1B78002B2BD10023BB8021E0A5
:100E2000BB88FB710023FB7012E097F90730002BA1
:100E300008DA97F907305B005BB283F007035BB217
:100E4000FB7102E0FB795B00FB71FB780133FB7007
:100E5000FB78072BE9D9BB880949FA79CA54BB88C2
:100E60000133BB80BB88FF2BDAD9044B01221A70F7
:100E700000E000BF0C37BD4680BC7047600B00200F
:100E8000600A002080B485B000AF78600B467B809C
:100E90000023FB731FE07B685A1C7A601A78FB7B87
:100EA0005340FB730023BB7312E097F90F30002B04
:100EB00008DA97F90F305B005BB283F007035BB28F
:100EC000FB7302E0FB7B5B00FB73BB7B0133BB73FB
:100ED000BB7B072BE9D97B885A1E7A80002BDAD19D
:100EE000FB7B18461437BD4680BC704780B584B084
:100EF00000AF78600B467B800023FB730D4B1B78A3
:100F0000002B0DD1FFF782FF0AE07B685A1C7A6044
:100F10001A78FB7B5340DBB21A46074B9B5CFB7392
:100F20007B885A1E7A80002BEFD1FB7B1846103746
:100F3000BD4680BD600B0020600A002080B584B0F3
:100F400000AF0346FB800023FB600F4B1B68FA8851
:100F5000DA62FB880C4AD3600B4B1B68FA685A6252
:100F6000094804F06FFA03E0074B1B685B6AFB60FB
:100F7000FB88FA689A42F7D1034804F0ADFA00BF43
:100F80001037BD4680BD00BFC810002080B582B0BC
:100F900000AF786003E04FF47A70FFF7CFFF7B6813
:100FA0005A1E7A60002BF6D100BF00BF0837BD463D
:100FB00080BD80B586B000AF03460A46FB8013466D
:100FC0007B71FB88DBB23B727B797B7202237B7582
:100FD00000F0C8F8A02000F047F90023FB820AE0E7
:100FE000FB8A18333B4413F8103C184600F03CF9D8
:100FF000FB8A0133FB827B7D9BB2FA8A9A42EFD354
:1010000000F0D4F800BF1837BD4680BD80B584B06D
:1010100000AF03463960FB801346BB800023FB8191
:101020000023FB8111E0FB893A6813441A78FB889E
:1010300011461846FFF7BDFFFB880133FB800A20ED
:1010400001F0A4FCFB890133FB81FA89BB889A4239
:10105000E9D300BF00BF1037BD4680BD80B586B064
:1010600000AF07F1080300221A605A609A60DA6044
:10107000174B9B69164A43F008039361144B9B6915
:1010800003F008037B607B684023BB600123FB60A7
:1010900000233B6103237B6107F1080319460D48D8
:1010A00002F078FB8023BB6007F10803194609486A
:1010B00002F070FB01224021064802F006FD0122E9
:1010C0008021044802F001FD00BF1837BD4680BDF5
:1010D00000100240000C014080B584B000AF3B46D8
:1010E00000221A605A609A60DA6080233B60012314
:1010F0007B600123BB600323FB603B46194603482A
:1011000002F048FB00BF1037BD4680BD000C014017
:1011100080B586B000AF07F1080300221A605A605C
:101120009A60DA600D4B9B690C4A43F008039361A7
:101130000A4B9B6903F008037B607B688023BB60DC
:101140000023FB6003237B6107F108031946044871
:1011500002F020FB00BF1837BD4680BD00100240E2
:10116000000C014080B500AFFFF7B6FF012240211F
:101170000D4802F0AAFC012280210B4802F0A5FCD8
:101180004FF4FA70FFF7DAFE00228021064802F0E1
:101190009CFC4FF4FA70FFF7D1FE00224021024878
:1011A00002F093FC00BF80BD000C014080B500AF91
:1011B000FFF792FF002280210D4802F086FC0122F9
:1011C00040210B4802F081FC4FF4FA70FFF7B6FEA5
:1011D00001228021064802F078FC4FF4FA70FFF7F4
:1011E000ADFE00224021024802F06FFC00BF80BD2E
:1011F000000C014080B582B000AF0023FB71FFF707
:1012000087FF00224021174802F05FFC4FF4FA707C
:10121000FFF794FE01228021124802F056FC4FF4A1
:10122000FA70FFF78BFE012240210E4802F04DFCC0
:101230004FF4FA70FFF782FE02E0FB790133FB7195
:101240008021084802F02AFC0346002BF5D1002239
:101250004021044802F039FC002318460837BD46F7
:1012600080BD00BF000C014080B584B000AF0346D4
:10127000FB71FFF731FF0023FB73002240211B4865
:1012800002F023FC0023FB7326E097F90730002BC4
:1012900005DA01228021154802F017FC04E0002243
:1012A0008021124802F011FCFB795B00FB710122E6
:1012B00040210E4802F009FC4FF4FA70FFF73EFEA1
:1012C00000224021094802F000FC4FF4FA70FFF7B9
:1012D00035FEFB7B0133FB73FB7B072BD5D9FFF777
:1012E00089FF034618461037BD4680BD000C0140FB
:1012F00080B586B000AF07F1080300221A605A607B
:101300009A60DA60124B9B69114A43F010039361B3
:101310000F4B9B6903F010037B607B684FF4005315
:10132000BB600123FB6000233B6102237B6107F16B
:1013300008031946074802F02DFA00224FF4005125
:10134000044802F0C2FB00BF1837BD4680BD00BF95
:10135000001002400010014080B500AF0C4B1B781C
:10136000002B09D101224FF400510A4802F0ADFBD5
:10137000074B01221A7008E000224FF40051054883
:1013800002F0A3FB024B00221A7000BF80BD00BF19
:10139000610B00200010014080B586B000AFF860FE
:1013A000B9607A607B80FB68BA681A60FB687A680B
:1013B0005A60FB68274A9A607B88002B01D07A88A4
:1013C00000E00122FB689A81FB6800221A75FB6825
:1013D00000229A61FB68204ADA61FB689B89012B35
:1013E00026D9FB689B899B00184605F08FFA0346B7
:1013F0001A46FB681A61FB681B69002B14D0002396
:101400007B610AE0FB681A697B699B0013444FF01B
:1014100000021A607B6901337B61FB689B891A4675
:101420007B699342EEDB06E0FB6801229A8102E0D1
:10143000FB6800221A61FB68084A1A62FB68084AC6
:101440005A62FB684FF000029A6200BF1837BD462F
:1014500080BD00BF0000C84100401C460FCF5B3B71
:101460002CBB843990B484B000AF03463960FB7163
:10147000FB79012B63D80023FB731AE07B781A46B3
:10148000FB7BC3F1070342FA03F303F00103002BD4
:1014900001D03A2100E01D21FA79F87B2A4C13464D
:1014A0005B001344DB00034444F82310FB7B01334F
:1014B000FB73FB7B072BE1D90823FB731AE03B7816
:1014C0001A46FB7BC3F10F0342FA03F303F0010357
:1014D000002B01D03A2100E01D21FA79F87B1A4C4B
:1014E00013465B001344DB00034444F82310FB7BEA
:1014F0000133FB73FB7B0F2BE1D91023FB731AE045
:10150000BB781A46FB7BC3F1170342FA03F303F0DF
:101510000103002B01D03A2100E01D21FA79F87B6C
:10152000094C13465B001344DB00034444F82310CA
:10153000FB7B0133FB73FB7B172BE1D900E000BF82
:101540001037BD4690BC7047640B002080B500AFDB
:101550003023034A0C21034804F03CF800BF80BD4F
:10156000640B00208010002080B584B000AF78604C
:1015700039600023FB8108E0FB89DBB2396818463B
:10158000FFF770FFFB890133FB81FB897A689A4280
:10159000F2D8FFF7DBFF00BF1037BD4680BD00006B
:1015A00080B586B000AF07F1080300221A605A60C8
:1015B0009A60DA600E4B9B690D4A43F00403936115
:1015C0000B4B9B6903F004037B607B680223BB60C9
:1015D0000123FB6000233B6102237B6107F10803C9
:1015E0001946044802F0D6F800BF1837BD4680BD42
:1015F000001002400008014080B582B000AF786062
:1016000039600220FFF7C2FC012202210D4802F0DE
:101610005CFA0220FFF7BAFC3B689AB20A237968A9
:10162000094804F09EFF0220FFF7B0FC00220221CF
:10163000044802F04AFA0220FFF7A8FC00BF08376E
:10164000BD4680BD000801409C1100200FB480B54C
:1016500082B000AF07F114033B603B683A694FF476
:101660000071084806F0CCF903467B6079680548AC
:10167000FFF7C2FF00BF0837BD46BDE8804004B099
:10168000704700BF240C002080B586B000AF07F182
:10169000080300221A605A609A60DA60114B9B6955
:1016A000104A43F0040393610E4B9B6903F004035B
:1016B0007B607B681023BB600123FB6001233B61DF
:1016C00003237B6107F108031946074802F062F81B
:1016D00001221021044802F0F8F900BF1837BD4676
:1016E00080BD00BF001002400008014080B582B0FC
:1016F00000AF9F23FB7000221021104802F0E5F993
:10170000F91C0A2301220E4803F03CF939460A234A
:1017100003220B4803F07AFA01221021074802F055
:10172000D4F93B781A047B781B021343BA7813432D
:101730007B607B6818460837BD4680BD00080140C5
:101740002410002080B582B000AF0623FB71002278
:101750001021094802F0B9F9F91D0A2301220748AE
:1017600003F010F901221021034802F0AEF900BF86
:101770000837BD4680BD00BF00080140241000208E
:1017800080B584B000AF78602023FB73FFF7DAFFE9
:10179000002210211A4802F098F907F10F010A23DC
:1017A0000122184803F0EEF87B681B0CDBB2BB7318
:1017B00007F10E010A230122124803F0E3F87B68C7
:1017C0001B0ADBB27B7307F10D010A2301220D48CE
:1017D00003F0D8F87B68DBB23B7307F10C010A23F6
:1017E0000122084803F0CEF801221021044802F03B
:1017F0006CF900F009F800BF1037BD4680BD00BF8E
:10180000000801402410002080B582B000AF0523FD
:10181000FB71002210210E4802F057F9F91D0A232E
:1018200001220C4803F0AEF8B91D0A230122094831
:1018300003F0ECF9BB7903F00103002BF4D1012292
:101840001021034802F041F900BF0837BD4680BDB2
:10185000000801402410002080B586B000AFF86079
:10186000B9601346FB800223FB75FFF76BFF002274
:1018700010211D4802F029F907F117010A2301225E
:101880001A4803F07FF8BB681B0CDBB2BB7507F18D
:1018900016010A230122154803F074F8BB681B0ADD
:1018A000DBB27B7507F115010A2301220F4803F013
:1018B00069F8BB68DBB23B7507F114010A2301220A
:1018C0000A4803F05FF8FA880A23F968074803F02A
:1018D00059F801221021044802F0F7F8FFF794FFAD
:1018E00000BF1837BD4680BD00080140241000200D
:1018F00080B586B000AFF860B9601346FB80002366
:10190000FB750023BB7500237B7500233B75BB680B
:101910007B757B7D5B423B75FB881B0A9BB2FB752D
:10192000FB88BB757B7D002B28D1FB7D002B15D15F
:10193000BB7D9BB21A46B968F868FFF78DFF7EE061
:101940004FF48072B968F868FFF786FFBB6803F54B
:101950008073BB60FB6803F58073FB60FB7D5A1EE0
:10196000FA75002BECD1BB7D002B68D0BB7D9BB200
:101970001A46B968F868FFF76FFF60E0FB7D002B3F
:1019800022D1BA7D3B7D9A4207D8BB7D9BB21A46D5
:10199000B968F868FFF760FF51E03B7D9BB21A46DB
:1019A000B968F868FFF758FF3B7DFA68D0183A7DB0
:1019B000BB68D118BB7D9AB23B7D9BB2D31A9BB258
:1019C0001A46FFF749FF3AE03B7D9BB2FA88D31AEB
:1019D000FB80FB881B0A9BB2FB75FB88BB753B7DBC
:1019E000002B1DD03B7D9BB21A46B968F868FFF703
:1019F00033FF3B7DBA681344BB603B7DFA681344F8
:101A0000FB600DE04FF48072B968F868FFF724FFBF
:101A1000BB6803F58073BB60FB6803F58073FB60F4
:101A2000FB7D5A1EFA75002BECD1BB7D002B06D036
:101A3000BB7D9BB21A46B968F868FFF70DFF00BF7F
:101A40001837BD4680BD000080B586B000AFF86095
:101A5000B9601346FB800323FB75FFF773FE00227A
:101A600010211C4802F031F807F117010A23012266
:101A7000194802F087FFBB681B0CDBB2BB7507F18E
:101A800016010A230122144802F07CFFBB681B0ADE
:101A9000DBB27B7507F115010A2301220E4802F023
:101AA00071FFBB68DBB23B7507F114010A23012209
:101AB000094802F067FFFA880A23F968064803F02C
:101AC000A5F801221021034801F0FFFF00BF1837DD
:101AD000BD4680BD00080140241000200FB480B531
:101AE00082B000AF07F114033B603B683A694FF4E2
:101AF00000710A4805F084FF03467B607B689AB258
:101B00004FF6FF730549064804F02BFD00BF083768
:101B1000BD46BDE8804004B0704700BF240D0020E2
:101B20005411002080B584B000AF3B1D00221A6024
:101B30005A609A60184B194A1A60174B00229A6033
:101B4000154B01221A73144B00221A75124B4FF4D5
:101B50006022DA61104B00225A600F4B01221A6199
:101B60000D4800F037FF0346002B01D000F064FA67
:101B700010237B600123BB600723FB603B1D1946DC
:101B8000054801F0ADF80346002B01D000F054FAEF
:101B900000BF1037BD4680BD240F00200024014047
:101BA00080B584B000AF3B1D00221A605A609A6075
:101BB000184B194A1A60174B00229A60154B0022E5
:101BC0001A73144B00221A75124B4FF46022DA611B
:101BD000104B00225A600F4B01221A610D4800F091
:101BE000F9FE0346002B01D000F026FA00237B60AB
:101BF0000123BB600523FB603B1D1946054801F02E
:101C00006FF80346002B01D000F016FA00BF103722
:101C1000BD4680BD540F00200028014080B58AB029
:101C200000AF786007F1180300221A605A609A60CA
:101C3000DA607B681B681D4A93420CD11C4B9B6980
:101C40001B4A43F400739361194B9B6903F40073BF
:101C50007B617B6926E07B681B68164A934221D131
:101C6000134B9B69124A43F480639361104B9B6949
:101C700003F480633B613B690D4B9B690C4A43F065
:101C8000040393610A4B9B6903F00403FB60FB6848
:101C90000123BB610323FB6107F1180319460648C2
:101CA00001F078FD00BF2837BD4680BD002401400B
:101CB00000100240002801400008014080B500AF3C
:101CC000064B074A1A60054801F059FB0346002BF2
:101CD00001D000F0B1F900BF80BD00BF840F00202B
:101CE0000030024080B485B000AF78607B681B682C
:101CF000094A93420BD1094B5B69084A43F0400300
:101D00005361064B5B6903F04003FB60FB6800BF57
:101D10001437BD4680BC70470030024000100240BE
:101D200080B582B000AF204B5B691F4A43F00103CE
:101D300053611D4B5B6903F001037B607B681B4BA8
:101D40001B4A1A60194B4FF480425A60174B4022CD
:101D50009A60164B8022DA60144B00221A61134BF2
:101D600000225A61114B00229A61104B0022DA6165
:101D70000E4801F021FB0346002B01D000F05CF976
:101D8000002200210B2001F0C4FA0B2001F0DDFA43
:101D9000002200210E2001F0BCFA0E2001F0D5FA3D
:101DA00000BF0837BD4680BD001002408C0F0020E8
:101DB0000800024080B588B000AF07F11003002290
:101DC0001A605A609A60DA60244B9B69234A43F098
:101DD00010039361214B9B6903F01003FB60FB68C8
:101DE0001E4B9B691D4A43F0200393611B4B9B696B
:101DF00003F02003BB60BB68184B9B69174A43F094
:101E000004039361154B9B6903F004037B607B68BB
:101E1000124B9B69114A43F0080393610F4B9B6976
:101E200003F008033B603B6800224FF400510C486C
:101E300001F04BFE4FF400533B6101237B61002313
:101E4000BB610223FB6107F110031946044801F04E
:101E5000A1FC00BF2037BD4680BD00BF001002407E
:101E60000010014080B500AF124B134A1A60114BAD
:101E7000124A5A600F4B00229A600E4B0022DA6021
:101E80000C4B4FF480421A610A4B00225A61094BF5
:101E900000229A61074B0022DA61064B00221A6287
:101EA000044801F02BFE0346002B01D000F0C4F8DB
:101EB00000BF80BDD00F002000540040A08601006C
:101EC00080B588B000AF786007F1100300221A6077
:101ED0005A609A60DA607B681B68154A934223D186
:101EE000144B9B69134A43F008039361114B9B69A0
:101EF00003F00803FB60FB68C0233B6112237B6196
:101F00000323FB6107F1100319460B4801F042FC63
:101F1000084BDB69074A43F40013D361054BDB69C7
:101F200003F40013BB60BB6800BF2037BD4680BD13
:101F30000054004000100240000C014080B500AF8A
:101F400000F0C2FC00F01BF8FFF734FFFFF7E8FEDB
:101F500000F0BCFB00F030FAFFF722FEFFF7E2FDD5
:101F6000FFF7ACFE00F0C6FAFFF77CFF00F06AF85E
:101F700000F0D6FBFEF72EFEFEF7A2FEFCE780B5D2
:101F800094B000AF07F1280328220021184605F07D
:101F900045FD07F1140300221A605A609A60DA6066
:101FA0001A613B1D00221A605A609A60DA600923A8
:101FB000BB624FF48033FB6200233B630123BB63AE
:101FC00001233B6402237B644FF48033BB644FF4F2
:101FD000E013FB6407F12803184601F0D3FE034623
:101FE000002B01D000F028F80F237B610223BB6196
:101FF0000023FB614FF480633B6200237B6207F1A7
:1020000014030221184602F03FF90346002B01D0C9
:1020100000F012F802237B604FF40043FB603B1D8D
:10202000184602F0BFFA0346002B01D000F004F876
:1020300000BF5037BD4680BD80B400AF72B600BF50
:1020400000BFFDE780B500AF174B184A1A60164B6A
:102050004FF482725A60144B00229A60124B002295
:10206000DA60114B00221A610F4B00225A610E4BAD
:102070004FF400729A610C4B0822DA610A4B00227D
:102080001A62094B00225A62074B00229A62064BE1
:102090000A22DA62044802F0F1FB0346002B01D069
:1020A000FFF7CAFF00BF80BD2410002000300140B0
:1020B00080B588B000AF786007F1100300221A6085
:1020C0005A609A60DA607B681B681B4A93422FD182
:1020D0001A4B9B69194A43F480539361174B9B69D0
:1020E00003F48053FB60FB68144B9B69134A43F075
:1020F00004039361114B9B6903F00403BB60BB684D
:10210000A0233B6102237B610323FB6107F11003E2
:1021100019460B4801F03EFB40233B6100237B61E5
:102120000023BB6107F110031946054801F032FB9B
:1021300000BF2037BD4680BD003001400010024086
:102140000008014080B485B000AF154B9B69144A6C
:1021500043F001039361124B9B6903F00103BB60E1
:10216000BB680F4BDB690E4A43F08053D3610C4BC5
:10217000DB6903F080537B607B680A4B5B68FB6024
:10218000FB6823F0E063FB60FB6843F00073FB60D7
:10219000044AFB68536000BF1437BD4680BC7047DB
:1021A000001002400000014080B400AF00BFFDE716
:1021B00080B400AF00BFFDE780B400AF00BFFDE713
:1021C00080B400AF00BFFDE780B400AF00BFFDE703
:1021D00080B400AF00BFBD4680BC704780B400AF84
:1021E00000BFBD4680BC704780B400AF00BFBD4695
:1021F00080BC704780B500AF00F0ACFB00BF80BD75
:1022000080B500AF024801F091F900BF80BD00BF6A
:102210008C0F002080B500AF024801F087F900BFA5
:1022200080BD00BF1011002080B400AF012318460C
:10223000BD4680BC704780B582B000AF7860396021
:1022400005F04EFC034616221A604FF0FF33184685
:102250000837BD4680BD80B582B000AF78604FF0D2
:10226000FF317868FFF7E7FF00BFFDE780B586B074
:1022700000AFF860B9607A6000237B610AE0AFF3D9
:1022800000800146BB685A1CBA60CAB21A707B69EA
:1022900001337B617A697B689A42F0DB7B68184680
:1022A0001837BD4680BD80B586B000AFF860B96014
:1022B0007A6000237B6109E0BB685A1CBA601B7816
:1022C0001846AFF300807B6901337B617A697B68D4
:1022D0009A42F1DB7B6818461837BD4680BD80B452
:1022E00083B000AF78604FF0FF3318460C37BD461F
:1022F00080BC704780B483B000AF786039603B68C1
:102300004FF400525A60002318460C37BD4680BC7B
:10231000704780B483B000AF7860012318460C3753
:10232000BD4680BC704780B485B000AFF860B9602E
:102330007A60002318461437BD4680BC7047000001
:1023400080B586B000AF7860144A154BD31A7B6114
:102350007B693B61134B1B68002B02D1114B124A66
:102360001A60104B1A687B6813443A699A4207D284
:1023700005F0B6FB03460C221A604FF0FF3309E06C
:10238000084B1B68FB60074B1A687B681344054ABF
:102390001360FB6818461837BD4680BD005000200A
:1023A000000400007C1000203813002080B400AF2F
:1023B00000BFBD4680BC704780B596B000AF07F146
:1023C000480300221A605A609A60DA6007F14003FD
:1023D00000221A605A6007F1240300221A605A6032
:1023E0009A60DA601A615A619A613B1D20220021CD
:1023F000184605F013FB3D4B3D4A1A603B4B00224B
:102400005A603A4B00229A60384B5922DA60374BB7
:1024100000221A61354B00225A61344B00229A6126
:10242000324802F0C0FF0346002B01D0FFF704FE44
:102430004FF48053BB6407F1480319462B4803F05F
:102440002DFB0346002B01D0FFF7F6FD274803F0D4
:1024500069F80346002B01D0FFF7EEFD00233B6433
:1024600000237B6407F140031946204803F07AFFFC
:102470000346002B01D0FFF7DFFD60237B620023C2
:10248000BB620023FB6200237B630023BB6300234A
:10249000FB6307F124030C221946144803F03CFAAD
:1024A0000346002B01D0FFF7C7FD00237B6000230C
:1024B000BB600023FB6000233B6100237B614FF482
:1024C0000053BB6100233B623B1D1946074803F0E4
:1024D000A7FF0346002B01D0FFF7AEFD034800F035
:1024E000C1F800BF5837BD4680BD00BF8010002036
:1024F000002C014080B586B000AF07F10803002230
:102500001A605A609A60DA603B4600221A605A608C
:102510001D4B1E4A1A601C4B47225A601A4B002260
:102520009A60194B4FF6FF72DA60174B00221A615E
:10253000154B00229A61144802F035FF0346002B28
:1025400001D0FFF779FD4FF48053BB6007F108031A
:1025500019460D4803F0A2FA0346002B01D0FFF7FD
:102560006BFD00233B6000237B603B461946064819
:1025700003F0F8FE0346002B01D0FFF75DFD00BF1E
:102580001837BD4680BD00BFC810002000040040C1
:1025900080B584B000AF78607B681B682C4A93429A
:1025A00040D12C4B9B692B4A43F400639361294B28
:1025B0009B6903F40063FB60FB68274B274A1A60A2
:1025C000254B10225A60244B00229A60224B802215
:1025D000DA60214B4FF400721A611F4B4FF4006216
:1025E0005A611D4B00229A611B4B0022DA611A4886
:1025F00000F0E2FE0346002B01D0FFF71DFD7B68D3
:10260000154A1A63144A7B6853627B68124A9A63BC
:10261000114A7B6853627B680F4A5A630E4A7B6893
:10262000536210E07B681B680D4A93420BD1094B43
:10263000DB69084A43F00203D361064BDB6903F010
:102640000203BB60BB6800BF1037BD4680BD00BF42
:10265000002C0140001002401011002044000240F4
:102660000004004080B588B000AF786007F1100327
:1026700000221A605A609A60DA607B681B68104A10
:10268000934218D10F4B9B690E4A43F004039361A8
:102690000C4B9B6903F00403FB60FB684FF4006381
:1026A0003B6102237B610323FB6107F110031946A1
:1026B000054801F06FF800BF2037BD4680BD00BF60
:1026C000002C0140001002400008014080B500AF1E
:1026D000114B124A1A60104B4FF4E1325A600E4B04
:1026E00000229A600C4B0022DA600B4B00221A6128
:1026F000094B0C225A61084B00229A61064B0022BA
:10270000DA61054803F0DDFE0346002B01D0FFF738
:1027100093FC00BF80BD00BF541100200038014071
:1027200080B500AF114B124A1A60104B4FF4E132E2
:102730005A600E4B00229A600C4B0022DA600B4B61
:1027400000221A61094B0C225A61084B00229A613F
:10275000064B0022DA61054803F0B3FE0346002B66
:1027600001D0FFF769FC00BF80BD00BF9C110020B5
:102770000044004080B58AB000AF786007F11803CC
:1027800000221A605A609A60DA607B681B68374AD8
:10279000934232D1364B9B69354A43F4804393616F
:1027A000334B9B6903F480437B617B69304B9B69AE
:1027B0002F4A43F0040393612D4B9B6903F00403FC
:1027C0003B613B694FF40073BB610223FB61032350
:1027D0007B6207F118031946264800F0DBFF4FF42F
:1027E0008063BB610023FB6100233B6207F1180398
:1027F0001946204800F0CEFF34E07B681B681E4A73
:1028000093422FD11A4BDB69194A43F40033D36149
:10281000174BDB6903F40033FB60FB68144B9B69C7
:10282000134A43F004039361114B9B6903F00403C3
:10283000BB60BB680423BB610223FB6103237B6293
:1028400007F1180319460B4800F0A4FF0823BB61E9
:102850000023FB6100233B6207F11803194605487A
:1028600000F098FF00BF2837BD4680BD003801400A
:10287000001002400008014000440040FFF796FDB0
:102880000B480C490C4A002302E0D458C4500433CE
:10289000C4188C42F9D3094A094C002301E01360A3
:1028A0000432A242FBD305F021F9FFF747FB704742
:1028B0000000002008020020B4B500080802002033
:1028C00034130020FEE7000080B500AF084B1B6802
:1028D000074A43F010031360032000F00FFD0F20A0
:1028E00000F008F8FFF72EFC0023184680BD00BF5B
:1028F0000020024080B582B000AF7860124B1A68A9
:10290000124B1B7819464FF47A73B3FBF1F3B2FB09
:10291000F3F3184600F027FD0346002B01D00123F6
:102920000EE07B680F2B0AD8002279684FF0FF3049
:1029300000F0EFFC064A7B681360002300E00123EF
:1029400018460837BD4680BD340000203C000020FA
:102950003800002080B400AF054B1B781A46054BA9
:102960001B681344034A136000BFBD4680BC704718
:102970003C000020E411002080B400AF024B1B6833
:102980001846BD4680BC7047E411002080B584B075
:1029900000AF7860FFF7F0FFB8607B68FB60FB6812
:1029A000B3F1FF3F05D00A4B1B781A46FB6813446E
:1029B000FB6000BFFFF7E0FF0246BB68D31AFA686E
:1029C0009A42F7D800BF00BF1037BD4680BD00BF98
:1029D0003C00002080B586B000AF78600023FB7516
:1029E00000233B610023BB600023FB607B68002B5E
:1029F00001D10123BEE07B689B68002B7B689B6A4A
:102A0000002B09D17B680022DA627B68002283F800
:102A100024207868FFF702F9786800F0B3FA0346DB
:102A2000FB757B689B6A03F01003002B40F09980D4
:102A3000FB7D002B40F095807B689B6A23F48853D4
:102A400023F0020343F002027B689A627B685A68B3
:102A50007B68DB691A437B681B7B5B001343BA68A6
:102A60001343BB607B689B68B3F5807F03D07B68B2
:102A70009B68012B02D14FF4807300E000233A6978
:102A800013433B617B681B7D012B19D17B681B7B4A
:102A9000002B09D17B689B69013B5A033B691343B7
:102AA00043F400633B610BE07B689B6A43F02002C8
:102AB0007B689A627B68DB6A43F001027B68DA62BA
:102AC0007B681B685B6823F469417B681B683A6913
:102AD0000A435A607B681B689A68284B13407A68DF
:102AE0001268B9680B4393607B689B68B3F5807F7D
:102AF00003D07B689B68012B04D17B681B69013B79
:102B00001B05FB607B681B68DB6A23F470017B6834
:102B10001B68FA680A43DA627B681B689A68184B7C
:102B20001340BA689A420BD17B680022DA627B6854
:102B30009B6A23F0030343F001027B689A6218E06A
:102B40007B689B6A23F0120343F010027B689A6251
:102B50007B68DB6A43F001027B68DA620123FB7564
:102B600007E07B689B6A43F010027B689A6201234E
:102B7000FB75FB7D18461837BD4680BDFDF7E1FFAC
:102B8000FE0E1FFF80B584B000AF78600023FB739A
:102B90007B6893F82430012B01D1022398E07B68F5
:102BA000012283F82420786800F092F90346FB7331
:102BB000FB7B002B40F087807B689B6A23F440738B
:102BC00023F0010343F480727B689A627B681B6880
:102BD000414A934205D1414B5B6803F47023002BBB
:102BE00015D17B689B6A23F480127B689A627B68AC
:102BF0001B685B6803F48063002B26D07B689B6AAC
:102C000023F4405343F480527B689A621DE07B6852
:102C10009B6A43F480127B689A627B681B682F4A28
:102C2000934204D07B681B682B4A93420DD12B4BF7
:102C30005B6803F48063002B07D07B689B6A23F4F6
:102C4000405343F480527B689A627B689B6A03F42A
:102C50008053002B06D07B68DB6A23F006027B687A
:102C6000DA6202E07B680022DA627B68002283F885
:102C700024207B681B686FF002021A607B681B6867
:102C80009B6803F46023B3F5602F13D17B681B6846
:102C9000114A934205D1114B5B6803F47023002B5A
:102CA00008D17B681B689A687B681B6842F4A002A5
:102CB0009A600CE07B681B689A687B681B6842F42A
:102CC00080129A6003E07B68002283F82420FB7B5B
:102CD00018461037BD4680BD002801400024014041
:102CE00080B485B000AF786039600023FB730023A7
:102CF000BB607B6893F82430012B01D10223DCE018
:102D00007B68012283F824203B685B68062B1CD873
:102D10007B681B68596B3B685A6813469B001344D9
:102D2000053B1F2202FA03F3DB4319403B68186896
:102D30003B685A6813469B001344053B00FA03F2B4
:102D40007B681B680A435A633CE03B685B680C2B5A
:102D50001CD87B681B68196B3B685A6813469B003C
:102D60001344233B1F2202FA03F3DB4319403B6861
:102D700018683B685A6813469B001344233B00FACB
:102D800003F27B681B680A431A631BE07B681B68BD
:102D9000D96A3B685A6813469B001344413B1F2283
:102DA00002FA03F3DB4319403B6818683B685A6832
:102DB00013469B001344413B00FA03F27B681B68F7
:102DC0000A43DA623B681B68092B1CD97B681B68C5
:102DD000D9683B681A6813465B0013441E3B072200
:102DE00002FA03F3DB4319403B6898683B681A68B2
:102DF00013465B0013441E3B00FA03F27B681B681A
:102E00000A43DA6019E07B681B6819693B681A6835
:102E100013465B001344072202FA03F3DB43194015
:102E20003B6898683B681A6813465B00134400FAD5
:102E300003F27B681B680A431A613B681B68102B0E
:102E400003D03B681B68112B32D17B681B681D4A7D
:102E5000934225D17B681B689B6803F40003002B19
:102E600026D17B681B689A687B681B6842F4000265
:102E70009A603B681B68102B1AD1134B1B68134ACE
:102E8000A2FB03239A0C13469B0013445B00BB6018
:102E900002E0BB68013BBB60BB68002BF9D107E0D7
:102EA0007B689B6A43F020027B689A620123FB7374
:102EB0007B68002283F82420FB7B18461437BD462C
:102EC00080BC7047002401403400002083DE1B4397
:102ED00080B584B000AF78600023FB600023BB6046
:102EE0007B681B689B6803F00103012B40D07B6863
:102EF0001B689A687B681B6842F001029A601F4B4E
:102F00001B681F4AA2FB03239B0CBB6002E0BB684B
:102F1000013BBB60BB68002BF9D1FFF72DFDF860CA
:102F20001FE0FFF729FD0246FB68D31A022B18D9D0
:102F30007B681B689B6803F00103012B11D07B6841
:102F40009B6A43F010027B689A627B68DB6A43F0FD
:102F500001027B68DA627B68002283F82420012367
:102F600007E07B681B689B6803F00103012BD8D145
:102F7000002318461037BD4680BD00BF3400002036
:102F800083DE1B4380B584B000AF78600023FB6014
:102F90007B681B689B6803F00103012B2ED17B68C3
:102FA0001B689A687B681B6822F001029A60FFF731
:102FB000E3FCF8601BE0FFF7DFFC0246FB68D31A76
:102FC000022B14D97B681B689B6803F00103012B5B
:102FD0000DD17B689B6A43F010027B689A627B6824
:102FE000DB6A43F001027B68DA62012307E07B6859
:102FF0001B689B6803F00103012BDCD000231846FB
:103000001037BD4680BD000090B587B000AF786036
:103010000023FB750023FB607B6893F82430012BB1
:1030200001D1022397E07B68012283F8242078688D
:10303000FFF7A8FF0346FB757868FFF749FF0346D3
:10304000FB75FB7D002B40F081807B689B6A23F43D
:10305000885323F0020343F002027B689A62404BDC
:103060001C68022001F054FB0346B4FBF3F35B0041
:10307000FB6002E0FB68013BFB60FB68002BF9D1C1
:103080007B681B689A687B681B6842F008029A603C
:10309000FFF772FC38611BE0FFF76EFC02463B69EC
:1030A000D31A0A2B14D97B681B689B6803F00803AA
:1030B000002B0DD07B689B6A23F0120343F01002B3
:1030C0007B689A627B68002283F82420012342E017
:1030D0007B681B689B6803F00803002BDCD17B68CE
:1030E0001B689A687B681B6842F004029A60FFF7CD
:1030F00043FC38611BE0FFF73FFC02463B69D31AF3
:103100000A2B14D97B681B689B6803F00403002B0F
:103110000DD07B689B6A23F0120343F010027B689A
:103120009A627B68002283F82420012313E07B68E5
:103130001B689B6803F00403002BDCD17B689B6A4F
:1031400023F0030343F001027B689A627B6800224C
:1031500083F82420FB7D18461C37BD4690BD00BF78
:103160003400002080B485B000AF78607B6803F045
:103170000703FB600C4BDB68BB60BA684FF6FF03CC
:103180001340BB60FB681A02BB68134343F0BF6384
:1031900043F40033BB60044ABB68D36000BF1437FC
:1031A000BD4680BC704700BF00ED00E080B400AFBA
:1031B000044BDB681B0A03F007031846BD4680BCBE
:1031C000704700BF00ED00E080B483B000AF03465D
:1031D000FB7197F90730002B0BDBFB7903F01F0223
:1031E000064997F907305B09012000FA02F241F81D
:1031F000232000BF0C37BD4680BC704700E100E0D3
:1032000080B483B000AF03463960FB7197F9073093
:10321000002B0ADB3B68DAB20C4997F90730120140
:10322000D2B20B4483F800230AE03B68DAB20849C3
:10323000FB7903F00F03043B1201D2B20B441A7660
:1032400000BF0C37BD4680BC704700BF00E100E006
:1032500000ED00E080B489B000AFF860B9607A603A
:10326000FB6803F00703FB61FB69C3F10703042B51
:1032700028BF0423BB61FB690433062B02D9FB6919
:10328000033B00E000237B614FF0FF32BB6902FA91
:1032900003F3DA43BB681A407B699A404FF0FF3171
:1032A0007B6901FA03F3D9437B680B40134318464B
:1032B0002437BD4680BC704780B582B000AF7860CF
:1032C0007B68013BB3F1807F01D301230FE00A4A01
:1032D0007B68013B53600F214FF0FF30FFF790FFF9
:1032E000054B00229A60044B07221A6000231846FF
:1032F0000837BD4680BD00BF10E000E080B582B059
:1033000000AF78607868FFF72DFF00BF0837BD4633
:1033100080BD80B586B000AF0346B9607A60FB73AC
:1033200000237B61FFF742FF78617A68B9687869AA
:10333000FFF790FF024697F90F3011461846FFF746
:103340005FFF00BF1837BD4680BD80B582B000AFBB
:103350000346FB7197F907301846FFF735FF00BFAA
:103360000837BD4680BD80B582B000AF7860786810
:10337000FFF7A2FF034618460837BD4680BD80B55B
:1033800082B000AF78607B68002B01D101230EE092
:103390007B685B79DBB2002B05D17B6800221A7158
:1033A0007868FEF79FFC7B6801225A71002318465B
:1033B0000837BD4680BD000080B485B000AF78609E
:1033C0000023FB607B68002B01D1012343E07B6875
:1033D0001B681A46224B1344224AA2FB03231B09F3
:1033E0009A007B681A647B681F4ADA637B68022252
:1033F00083F821207B681B681B68FB60FB6823F453
:103400007F5323F03003FB607B685A687B689B68BE
:103410001A437B68DB681A437B681B691A437B6825
:103420005B691A437B689B691A437B68DB691343BA
:10343000FA681343FB607B681B68FA681A607B6854
:1034400000229A637B68012283F821207B68002296
:1034500083F82020002318461437BD4680BC7047EF
:10346000F8FFFDBFCDCCCCCC0000024080B586B0CB
:1034700000AFF860B9607A603B600023FB75FB68C1
:1034800093F82030012B01D102234BE0FB6801228D
:1034900083F82020FB6893F82130DBB2012B3AD16E
:1034A000FB68022283F82120FB6800229A63FB68F4
:1034B0001B681A68FB681B6822F001021A603B68EF
:1034C0007A68B968F86800F037F9FB68DB6A002BA6
:1034D00008D0FB681B681A68FB681B6842F00E0284
:1034E0001A600FE0FB681B681A68FB681B6822F013
:1034F00004021A60FB681B681A68FB681B6842F0CC
:103500000A021A60FB681B681A68FB681B6842F0B5
:1035100001021A6005E0FB68002283F820200223E4
:10352000FB75FB7D18461837BD4680BD80B584B05D
:1035300000AF78607B68DB6B1B68FB607B681B6897
:103540001B68BB607B681B6C04229A40FB681340BD
:10355000002B4FD0BB6803F00403002B4AD07B68DC
:103560001B681B6803F02003002B07D17B681B68D6
:103570001A687B681B6822F004021A607B681B686B
:10358000664A934229D07B681B68654A934222D0E1
:103590007B681B68634A93421AD07B681B68624A47
:1035A000934212D07B681B68604A93420AD07B68C2
:1035B0001B685F4A934202D14FF480030EE04FF044
:1035C00080630BE04FF4802308E04FF4804305E074
:1035D0004FF4806302E0402300E00423554A536027
:1035E0007B68DB6A002B00F094807B68DB6A78687C
:1035F00098478EE07B681B6C02229A40FB68134060
:10360000002B56D0BB6803F00203002B51D07B681F
:103610001B681B6803F02003002B0BD17B681B6821
:103620001A687B681B6822F00A021A607B68012214
:1036300083F821207B681B68384A934229D07B6835
:103640001B68374A934222D07B681B68354A9342F5
:103650001AD07B681B68344A934212D07B681B687F
:10366000324A93420AD07B681B68314A934202D1A6
:103670004FF400130EE04FF000730BE04FF40033F3
:1036800008E04FF4005305E04FF4007302E02023FC
:1036900000E00223274A53607B68002283F8202041
:1036A0007B689B6A002B34D07B689B6A786898475C
:1036B0002FE07B681B6C08229A40FB681340002BAC
:1036C00028D0BB6803F00803002B23D07B681B685D
:1036D0001A687B681B6822F00E021A607B681A6CFD
:1036E0007B68DB6B012101FA02F25A607B680122E0
:1036F0009A637B68012283F821207B68002283F88B
:1037000020207B681B6B002B04D07B681B6B7868C8
:10371000984700BF00BF1037BD4680BD080002407B
:103720001C000240300002404400024058000240A9
:103730006C0002400000024080B485B000AFF86029
:10374000B9607A603B60FB681A6CFB68DB6B012137
:1037500001FA02F25A60FB681B683A685A60FB681B
:103760005B68102B08D1FB681B687A689A60FB685D
:103770001B68BA68DA6007E0FB681B68BA689A6081
:10378000FB681B687A68DA6000BF1437BD4680BCEE
:103790007047000080B48BB000AF786039600023C0
:1037A0007B6200233B6269E101227B6A02FA03F338
:1037B000FB613B681B68FA691340BB61BA69FB692E
:1037C0009A4240F058813B685B689A4A93425ED0C7
:1037D000984A934275D8984A934258D0964A934251
:1037E0006FD8964A934252D0944A934269D8944AE9
:1037F00093424CD0924A934263D8924A934246D025
:10380000904A93425DD8122B2AD8122B59D801A284
:1038100052F823F08F380008693800087B38000818
:10382000BD380008C3380008C3380008C338000892
:10383000C3380008C3380008C3380008C33800087C
:10384000C3380008C3380008C3380008C33800086C
:10385000C3380008C33800087138000885380008EC
:10386000794A934213D02CE03B68DB683B6229E045
:103870003B68DB6804333B6224E03B68DB68083369
:103880003B621FE03B68DB680C333B621AE03B683D
:103890009B68002B02D104233B6213E03B689B68CA
:1038A000012B05D108233B627B68FA691A6109E0A4
:1038B00008233B627B68FA695A6103E000233B629C
:1038C00000E000BFBB69FF2B01D87B6801E07B688B
:1038D00004337B61BB69FF2B02D87B6A9B0002E04B
:1038E0007B6A083B9B003B617B691A680F213B693F
:1038F00001FA03F3DB431A40396A3B6901FA03F327
:103900001A437B691A603B685B6803F08053002BA5
:1039100000F0B1804D4B9B694C4A43F00103936129
:103920004A4B9B6903F00103BB60BB68484A7B6A52
:103930009B08023352F82330FB607B6A03F00303D9
:103940009B000F2202FA03F3DB43FA681340FB608B
:103950007B68404A934213D07B683F4A93420DD024
:103960007B683E4A934207D07B683D4A934201D12F
:10397000032306E0042304E0022302E0012300E025
:1039800000237A6A02F0030292009340FA6813431C
:10399000FB602F497B6A9B080233FA6841F82320B9
:1039A0003B685B6803F48013002B06D02D4B9A68AC
:1039B0002C49BB6913438B6006E02A4B9A68BB69AC
:1039C000DB43284913408B603B685B6803F40013BA
:1039D000002B06D0234BDA682249BB691343CB6026
:1039E00006E0204BDA68BB69DB431E491340CB601D
:1039F0003B685B6803F40033002B06D0194B5A6810
:103A00001849BB6913434B6006E0164B5A68BB6903
:103A1000DB43144913404B603B685B6803F480331D
:103A2000002B21D00F4B1A680E49BB6913430B6062
:103A300021E000BF00003210000031100000221011
:103A400000002110000012100000111000100240B0
:103A50000000014000080140000C0140001001403E
:103A600000140140000401400B4B1A68BB69DB43A2
:103A7000094913400B607B6A01337B623B681A681B
:103A80007B6A22FA03F3002B7FF48EAE00BF00BFE7
:103A90002C37BD4680BC70470004014080B485B01F
:103AA00000AF78600B467B807B689A687B88134008
:103AB000002B02D00123FB7301E00023FB73FB7B8F
:103AC00018461437BD4680BC704780B483B000AF41
:103AD00078600B467B8013467B707B78002B03D08D
:103AE0007A887B681A6103E07B881A047B681A6114
:103AF00000BF0C37BD4680BC7047000080B584B065
:103B000000AF78607B68002B01D101232BE17B683B
:103B100093F83D30DBB2002B06D17B68002283F89E
:103B20003C207868FEF7CCF97B68242283F83D209E
:103B30007B681B681A687B681B6822F001021A60A8
:103B40007B681B681A687B681B6842F400421A6035
:103B50007B681B681A687B681B6822F400421A6045
:103B600000F0DAFCF8607B685B68814A934207D812
:103B7000FB68804A934294BF01230023DBB206E036
:103B8000FB687D4A934294BF01230023DBB2002BE4
:103B900001D00123E7E0FB68784AA2FB03239B0CDA
:103BA000BB607B681B685B6823F03F017B681B6818
:103BB000BA680A435A607B681B681B6A23F03F019E
:103BC0007B685B686A4A934202D8BB68013309E0AC
:103BD000BB684FF4967202FB03F3694AA2FB03230E
:103BE0009B0901337A6812680B4313627B681B6878
:103BF000DB6923F44F4222F0FF027B685B685C497B
:103C00008B4219D8FB68591E7B685B685B00B1FB6F
:103C1000F3F3591C40F6FC730B40002B0AD0FB68F1
:103C2000591E7B685B685B00B1FBF3F30133C3F3A0
:103C30000B0351E004234FE07B689B68002B11D1FC
:103C4000FB68581E7B6859680B465B000B44B0FB51
:103C5000F3F30133C3F30B03002B0CBF0123002349
:103C6000DBB212E0FB68581E7B6859680B469B006C
:103C70000B4499000B44B0FBF3F30133C3F30B0384
:103C8000002B0CBF01230023DBB2002B01D001234A
:103C900022E07B689B68002B0ED1FB68581E7B6876
:103CA00059680B465B000B44B0FBF3F30133C3F3DD
:103CB0000B0343F400430FE0FB68581E7B68596810
:103CC0000B469B000B4499000B44B0FBF3F301330C
:103CD000C3F30B0343F44043796809681343CB6192
:103CE0007B681B681B6823F0C0017B68DA697B680E
:103CF0001B6A1A437B681B680A431A607B681B684F
:103D00009B6823F4034323F0FF037A6811697A6800
:103D1000D26811437A6812680B4393607B681B6812
:103D2000DB6823F0FF017B685A697B689B691A4353
:103D30007B681B680A43DA607B681B681A687B68CB
:103D40001B6842F001021A607B6800221A647B68DB
:103D5000202283F83D207B6800221A637B680022C2
:103D600083F83E20002318461037BD4680BD00BFB3
:103D7000A08601007F841E00FF083D0083DE1B43F8
:103D8000D34D621080B586B000AF78607B68002BA1
:103D900001D1012372E27B681B6803F00103002B51
:103DA00000F08780924B5B6803F00C03042B0CD06F
:103DB0008F4B5B6803F00C03082B12D18C4B5B68B4
:103DC00003F48033B3F5803F0BD1894B1B6803F4B8
:103DD0000033002B6CD07B685B68002B68D101231B
:103DE0004CE27B685B68B3F5803F06D1804B1B6873
:103DF0007F4A43F4803313602EE07B685B68002BBE
:103E00000CD17B4B1B687A4A23F480331360784BC8
:103E10001B68774A23F4802313601DE07B685B688E
:103E2000B3F5A02F0CD1724B1B68714A43F4802369
:103E300013606F4B1B686E4A43F4803313600BE0D2
:103E40006B4B1B686A4A23F480331360684B1B6812
:103E5000674A23F4802313607B685B68002B13D0D0
:103E6000FEF78AFD386108E0FEF786FD02463B69F1
:103E7000D31A642B01D9032300E25D4B1B6803F4C2
:103E80000033002BF0D014E0FEF776FD386108E037
:103E9000FEF772FD02463B69D31A642B01D9032356
:103EA000ECE1534B1B6803F40033002BF0D100E02E
:103EB00000BF7B681B6803F00203002B63D04C4BF0
:103EC0005B6803F00C03002B0BD0494B5B6803F0DD
:103ED0000C03082B1CD1464B5B6803F48033002B8A
:103EE00016D1434B1B6803F00203002B05D07B68FF
:103EF0001B69012B01D00123C0E13D4B1B6823F05E
:103F0000F8027B685B69DB00394913430B603AE0D8
:103F10007B681B69002B20D0364B01221A60FEF70C
:103F20002BFD386108E0FEF727FD02463B69D31AF6
:103F3000022B01D90323A1E12D4B1B6803F00203DF
:103F4000002BF0D02A4B1B6823F0F8027B685B69DA
:103F5000DB00274913430B6015E0264B00221A6053
:103F6000FEF70AFD386108E0FEF706FD02463B69F0
:103F7000D31A022B01D9032380E11D4B1B6803F0E8
:103F80000203002BF0D17B681B6803F00803002BB1
:103F90003AD07B689B69002B19D0174B01221A601D
:103FA000FEF7EAFC386108E0FEF7E6FC02463B69F2
:103FB000D31A022B01D9032360E10D4B5B6A03F096
:103FC0000203002BF0D0012000F0CEFA1CE00A4BD7
:103FD00000221A60FEF7D0FC38610FE0FEF7CCFC3F
:103FE00002463B69D31A022B08D9032346E100BFDE
:103FF000001002400000424280044242924B5B6A41
:1040000003F00203002BE9D17B681B6803F0040373
:10401000002B00F0A6800023FB758B4BDB6903F0BF
:104020008053002B0DD1884BDB69874A43F08053C6
:10403000D361854BDB6903F08053BB60BB68012310
:10404000FB75824B1B6803F48073002B18D17F4BE8
:104050001B687E4A43F480731360FEF78DFC386161
:1040600008E0FEF789FC02463B69D31A642B01D9AC
:10407000032303E1754B1B6803F48073002BF0D01E
:104080007B68DB68012B06D16F4B1B6A6E4A43F0DD
:10409000010313622DE07B68DB68002B0CD16A4BB7
:1040A0001B6A694A23F001031362674B1B6A664A65
:1040B00023F0040313621CE07B68DB68052B0CD142
:1040C000614B1B6A604A43F0040313625E4B1B6A38
:1040D0005D4A43F0010313620BE05B4B1B6A5A4AD3
:1040E00023F001031362584B1B6A574A23F0040361
:1040F00013627B68DB68002B15D0FEF73DFC38614E
:104100000AE0FEF739FC02463B69D31A41F28832D5
:10411000934201D90323B1E04B4B1B6A03F0020326
:10412000002BEED014E0FEF727FC38610AE0FEF722
:1041300023FC02463B69D31A41F28832934201D9EB
:1041400003239BE0404B1B6A03F00203002BEED1DC
:10415000FB7D012B05D13C4BDB693B4A23F08053AF
:10416000D3617B68DB69002B00F08780364B5B688E
:1041700003F00C03082B61D07B68DB69022B46D16E
:10418000334B00221A60FEF7F7FB386108E0FEF7B8
:10419000F3FB02463B69D31A022B01D903236DE0DE
:1041A000294B1B6803F00073002BF0D17B681B6A5E
:1041B000B3F5803F08D1244B5B6823F400327B6861
:1041C0009B68214913434B601F4B5B6823F47412B7
:1041D0007B68196A7B685B6A0B431B4913434B601E
:1041E0001B4B01221A60FEF7C7FB386108E0FEF79F
:1041F000C3FB02463B69D31A022B01D903233DE0DE
:10420000114B1B6803F00073002BF0D035E0104B0E
:1042100000221A60FEF7B0FB386108E0FEF7ACFB45
:1042200002463B69D31A022B01D9032326E0064B31
:104230001B6803F00073002BF0D11EE07B68DB6984
:10424000012B07D1012319E000100240007000404B
:10425000600042420B4B5B68FB60FB6803F48032FA
:104260007B681B6A9A4206D1FB6803F470127B6874
:104270005B6A9A4201D0012300E0002318461837F8
:10428000BD4680BD0010024080B584B000AF7860AC
:1042900039607B68002B01D10123D0E06A4B1B6899
:1042A00003F007033A689A4210D9674B1B6823F062
:1042B000070265493B6813430B60634B1B6803F0BF
:1042C00007033A689A4201D00123B8E07B681B6873
:1042D00003F00203002B20D07B681B6803F004036B
:1042E000002B05D0594B5B68584A43F4E063536098
:1042F0007B681B6803F00803002B05D0534B5B68F9
:10430000524A43F460535360504B5B6823F0F00211
:104310007B689B684D4913434B607B681B6803F0C7
:104320000103002B40D07B685B68012B07D1474B12
:104330001B6803F40033002B15D101237FE07B6859
:104340005B68022B07D1414B1B6803F00073002B05
:1043500009D1012373E03D4B1B6803F00203002BDE
:1043600001D101236BE0394B5B6823F003027B68CA
:104370005B68364913434B60FEF7FEFAF8600AE0CB
:10438000FEF7FAFA0246FB68D31A41F288329342EA
:1043900001D9032353E02D4B5B6803F00C027B68CB
:1043A0005B689B009A42EBD1274B1B6803F0070325
:1043B0003A689A4210D2244B1B6823F00702224924
:1043C0003B6813430B60204B1B6803F007033A68FC
:1043D0009A4201D0012332E07B681B6803F004039A
:1043E000002B08D0194B5B6823F4E0627B68DB6824
:1043F000164913434B607B681B6803F00803002BCE
:1044000009D0124B5B6823F460527B681B69DB00A8
:104410000E4913434B6000F021F802460B4B5B68DA
:104420001B0903F00F030A49CB5C22FA03F3094A84
:104430001360094B1B681846FEF75CFA0023184608
:104440001037BD4680BD00BF002002400010024072
:1044500040B10008340000203800002080B487B04C
:1044600000AF0023FB600023BB6000237B610023BF
:104470007B6000233B611E4B5B68FB60FB6803F0C5
:104480000C03042B02D0082B03D027E0194B3B610F
:1044900027E0FB689B0C03F00F03174AD35C7B609B
:1044A000FB6803F48033002B10D0114B5B685B0C6E
:1044B00003F00103114AD35CBB607B680D4A03FB28
:1044C00002F2BB68B2FBF3F37B6104E07B680C4A49
:1044D00002FB03F37B617B693B6102E0054B3B61BF
:1044E00000BF3B6918461C37BD4680BC704700BF03
:1044F0000010024000127A0058B1000868B10008AC
:1045000000093D0080B400AF024B1B681846BD4651
:1045100080BC70473400002080B500AFFFF7F2FF89
:104520000246054B5B681B0A03F007030349CB5C9B
:1045300022FA03F3184680BD0010024050B1000873
:1045400080B500AFFFF7DEFF0246054B5B68DB0A74
:1045500003F007030349CB5C22FA03F3184680BD3E
:104560000010024050B1000880B485B000AF786000
:104570000A4B1B680A4AA2FB03235B0A7A6802FB08
:1045800003F3FB6000BFFB685A1EFA60002BF9D1F1
:1045900000BF00BF1437BD4680BC70473400002008
:1045A000D34D621080B586B000AF786000233B61C8
:1045B0000023FB607B681B6803F00103002B7DD0A8
:1045C0000023FB754F4BDB6903F08053002B0DD1AB
:1045D0004C4BDB694B4A43F08053D361494BDB6959
:1045E00003F08053BB60BB680123FB75464B1B681F
:1045F00003F48073002B18D1434B1B68424A43F4E9
:1046000080731360FEF7B8F9386108E0FEF7B4F97B
:1046100002463B69D31A642B01D903236DE03A4B60
:104620001B6803F48073002BF0D0364B1B6A03F435
:104630004073FB60FB68002B2ED07B685B6803F443
:104640004073FA689A4227D02E4B1B6A23F44073BA
:10465000FB602E4B01221A602C4B00221A60294A63
:10466000FB681362FB6803F00103002B14D0FEF714
:1046700083F938610AE0FEF77FF902463B69D31AF5
:1046800041F28832934201D9032336E01D4B1B6A65
:1046900003F00203002BEED01A4B1B6A23F4407286
:1046A0007B685B68174913430B62FB7D012B05D1C7
:1046B000144BDB69134A23F08053D3617B681B687A
:1046C00003F00203002B08D00E4B5B6823F440423A
:1046D0007B689B680B4913434B607B681B6803F046
:1046E0001003002B08D0074B5B6823F480027B6823
:1046F000DB68044913434B60002318461837BD4656
:1047000080BD00BF001002400070004040044242E3
:1047100080B588B000AF786000237B610023FB6127
:1047200000233B610023FB600023BB617B68102BEF
:104730000AD07B68102B00F28A807B68012B45D061
:104740007B68022B75D082E0464B5B68FB60454B73
:104750001B6803F08073002B7BD0FB689B0C03F07D
:104760000F03414AD35C3B61FB6803F48033002BA9
:1047700015D03C4B5B685B0C03F001033B4AD35CF8
:104780007B61FB6803F48033002B0DD0384A7B69D2
:10479000B2FBF3F23B6902FB03F3FB6104E03B690C
:1047A000344A02FB03F3FB612E4B5B6803F4800386
:1047B000B3F5800F02D1FB69BB614AE0FB695B0086
:1047C0002D4AA2FB03235B08BB6142E0254B1B6A19
:1047D000FB60FB6803F44073B3F5807F08D1FB688E
:1047E00003F00203002B03D04FF40043BB611FE032
:1047F000FB6803F44073B3F5007F09D1194B5B6A82
:1048000003F00203002B03D049F64043BB610FE0E5
:10481000FB6803F44073B3F5407F1CD1114B1B6858
:1048200003F40033002B16D04FF22443BB6112E097
:1048300011E0FFF785FE02460A4B5B689B0B03F015
:10484000030301335B00B2FBF3F3BB6104E000BF81
:1048500002E000BF00E000BFBB6918462037BD463C
:1048600080BD00BF001002406CB100087CB10008A0
:1048700000127A0000093D00ABAAAAAA80B582B056
:1048800000AF78607B68002B01D1012376E07B6864
:104890005B6A002B08D17B685B68B3F5827F09D027
:1048A0007B680022DA6105E07B6800221A617B6880
:1048B00000225A617B6800229A627B6893F851302B
:1048C000DBB2002B06D17B68002283F85020786889
:1048D000FDF7EEFB7B68022283F851207B681B68A2
:1048E0001A687B681B6822F040021A607B685B686C
:1048F00003F482727B689B6803F404431A437B6869
:10490000DB6803F400631A437B681B6903F002034E
:104910001A437B685B6903F001031A437B689B6958
:1049200003F400731A437B68DB6903F038031A430E
:104930007B681B6A03F0800342EA03017B689B6A81
:1049400003F400527B681B680A431A607B689B690A
:104950001A0C7B681B6802F004025A607B681B68B3
:10496000DA697B681B6822F40062DA617B680022E6
:104970005A657B68012283F85120002318460837C6
:10498000BD4680BD80B588B000AFF860B9603B60BF
:104990001346FB80FDF7F0FFF861FB887B83FB6823
:1049A00093F85130DBB2012B01D002232AE1BB681E
:1049B000002B02D0FB88002B01D1012322E1FB68F0
:1049C00093F85030012B01D102231BE1FB68012237
:1049D00083F85020FB68032283F85120FB680022F3
:1049E0005A65FB68BA681A63FB68FA889A86FB689E
:1049F000FA88DA86FB6800229A63FB6800229A87AD
:104A0000FB680022DA87FB6800225A64FB680022F8
:104A10001A64FB689B68B3F5004F0FD1FB681B68F5
:104A20001A68FB681B6822F040021A60FB681B686A
:104A30001A68FB681B6842F480421A60FB681B68B6
:104A40001B6803F04003402B07D0FB681B681A6803
:104A5000FB681B6842F040021A60FB68DB68B3F534
:104A6000006F52D1FB685B68002B02D07B8B012B5F
:104A700045D1FB681B6B1A88FB681B68DA60FB6812
:104A80001B6B9A1CFB681A63FB68DB8E9BB2013BB5
:104A90009AB2FB68DA8632E0FB681B689B6803F019
:104AA0000203022B12D1FB681B6B1A88FB681B6880
:104AB000DA60FB681B6B9A1CFB681A63FB68DB8E71
:104AC0009BB2013B9AB2FB68DA8618E0FDF754FF0F
:104AD0000246FB69D31A3A689A4203D83B68B3F19D
:104AE000FF3F02D13B68002B09D1FB68012283F80C
:104AF0005120FB68002283F85020032382E0FB68EA
:104B0000DB8E9BB2002BC7D153E0FB685B68002BA8
:104B100002D07B8B012B47D1FB681A6BFB681B68AB
:104B20000C3312781A70FB681B6B5A1CFB681A63F3
:104B3000FB68DB8E9BB2013B9AB2FB68DA8633E0FE
:104B4000FB681B689B6803F00203022B13D1FB6810
:104B50001A6BFB681B680C3312781A70FB681B6BAE
:104B60005A1CFB681A63FB68DB8E9BB2013B9AB24E
:104B7000FB68DA8618E0FDF7FFFE0246FB69D31AF0
:104B80003A689A4203D83B68B3F1FF3F02D13B68D1
:104B9000002B09D1FB68012283F85120FB68002219
:104BA00083F8502003232DE0FB68DB8E9BB2002BA3
:104BB000C6D1FA693968F86800F0C4FB0346002BD7
:104BC00002D0FB6820225A65FB689B68002B0AD143
:104BD00000237B61FB681B68DB687B61FB681B68EB
:104BE0009B687B617B69FB68012283F85120FB682D
:104BF000002283F85020FB685B6D002B01D001235D
:104C000000E0002318462037BD4680BD80B588B03F
:104C100002AFF860B9603B601346FB80FB6893F815
:104C20005130DBB2012B01D0022304E1FB685B6849
:104C3000B3F5827F12D1FB689B68002B0ED1FB6815
:104C4000042283F85120FA883B6800931346BA681F
:104C5000B968F86800F0F3F80346ECE0FDF78CFE65
:104C60007861BB68002B02D0FB88002B01D10123A7
:104C7000E1E0FB6893F85030012B01D10223DAE028
:104C8000FB68012283F85020FB68042283F851203E
:104C9000FB6800225A65FB68BA689A63FB68FA8869
:104CA0009A87FB68FA88DA87FB6800221A63FB6838
:104CB00000229A86FB680022DA86FB6800221A64CA
:104CC000FB6800225A64FB689B68B3F5004F0FD164
:104CD000FB681B681A68FB681B6822F040021A60B8
:104CE000FB681B681A68FB681B6822F480421A6024
:104CF000FB681B681B6803F04003402B07D0FB6870
:104D00001B681A68FB681B6842F040021A60FB6867
:104D1000DB68002B70D135E0FB681B689B6803F0F3
:104D20000103012B15D1FB681B6803F10C02FB6822
:104D30009B6B1278D2B21A70FB689B6B5A1CFB6893
:104D40009A63FB68DB8F9BB2013B9AB2FB68DA8700
:104D500018E0FDF711FE02467B69D31A3A689A42C1
:104D600003D83B68B3F1FF3F02D13B68002B09D168
:104D7000FB68012283F85120FB68002283F8502051
:104D8000032358E0FB68DB8F9BB2002BC4D138E0D3
:104D9000FB681B689B6803F00103012B13D1FB68C0
:104DA0001B68DA68FB689B6B92B21A80FB689B6B8E
:104DB0009A1CFB689A63FB68DB8F9BB2013B9AB23B
:104DC000FB68DA8718E0FDF7D7FD02467B69D31A46
:104DD0003A689A4203D83B68B3F1FF3F02D13B687F
:104DE000002B09D1FB68012283F85120FB680022C7
:104DF00083F8502003231EE0FB68DB8F9BB2002B5F
:104E0000C6D17A693968F86800F04AFA0346002B7F
:104E100002D0FB6820225A65FB68012283F85120EA
:104E2000FB68002283F85020FB685B6D002B01D0EB
:104E3000012300E0002318461837BD4680BD80B529
:104E40008AB000AFF860B9607A607B8001237B6232
:104E5000FDF792FD3862FB6893F85130FB77FB68F1
:104E60005B68BB617B88FB82FB7F012B0CD0BB693D
:104E7000B3F5827F06D1FB689B68002B02D1FB7FD4
:104E8000042B01D002237FE1BB68002B05D07B6897
:104E9000002B02D07B88002B01D1012374E1FB6839
:104EA00093F85030012B01D102236DE1FB68012200
:104EB00083F85020FB6893F85130DBB2042B03D009
:104EC000FB68052283F85120FB6800225A65FB68C5
:104ED0007A689A63FB687A88DA87FB687A889A87A7
:104EE000FB68BA681A63FB687A88DA86FB687A8896
:104EF0009A86FB6800221A64FB6800225A64FB68E9
:104F00001B681B6803F04003402B07D0FB681B683D
:104F10001A68FB681B6842F040021A60FB68DB6895
:104F2000B3F5006F7ED1FB685B68002B02D0FB8A73
:104F3000012B6CD1FB681B6B1A88FB681B68DA605D
:104F4000FB681B6B9A1CFB681A63FB68DB8E9BB2C9
:104F5000013B9AB2FB68DA8659E0FB681B689B68E4
:104F600003F00203022B1BD1FB68DB8E9BB2002BEC
:104F700016D07B6A012B13D1FB681B6B1A88FB6868
:104F80001B68DA60FB681B6B9A1CFB681A63FB6882
:104F9000DB8E9BB2013B9AB2FB68DA8600237B6210
:104FA000FB681B689B6803F00103012B19D1FB68A8
:104FB000DB8F9BB2002B14D0FB681B68DA68FB68A0
:104FC0009B6B92B21A80FB689B6B9A1CFB689A637E
:104FD000FB68DB8F9BB2013B9AB2FB68DA87012347
:104FE0007B62FDF7C9FC02463B6AD31A3A6B9A42D0
:104FF0000DD83B6BB3F1FF3F09D0FB68012283F86A
:105000005120FB68002283F850200323BCE0FB689A
:10501000DB8E9BB2002BA0D1FB68DB8F9BB2002BF9
:105020009BD182E0FB685B68002B02D0FB8A012BDE
:1050300071D1FB681A6BFB681B680C3312781A700D
:10504000FB681B6B5A1CFB681A63FB68DB8E9BB208
:10505000013B9AB2FB68DA865DE0FB681B689B68DF
:1050600003F00203022B1CD1FB68DB8E9BB2002BEA
:1050700017D07B6A012B14D1FB681A6BFB681B6885
:105080000C3312781A70FB681B6B5A1CFB681A638E
:10509000FB68DB8E9BB2013B9AB2FB68DA86002389
:1050A0007B62FB681B689B6803F00103012B19D12D
:1050B000FB68DB8F9BB2002B14D0FB681B68DA689F
:1050C000FB689B6BD2B21A70FB689B6B5A1CFB6827
:1050D0009A63FB68DB8F9BB2013B9AB2FB68DA876D
:1050E00001237B62FDF748FC02463B6AD31A3A6B08
:1050F0009A4203D83B6BB3F1FF3F02D13B6B002BCD
:1051000009D1FB68012283F85120FB68002283F853
:105110005020032338E0FB68DB8E9BB2002B9CD130
:10512000FB68DB8F9BB2002B97D13A6A396BF8682A
:1051300000F008F90346002B08D0FB6820225A65CE
:10514000FB68002283F8502001231DE0FB689B6868
:10515000002B0AD100233B61FB681B68DB683B61C5
:10516000FB681B689B683B613B69FB68012283F815
:105170005120FB68002283F85020FB685B6D002BF8
:1051800001D0012300E0002318462837BD4680BD2A
:1051900080B588B000AFF860B9603B601346FB7122
:1051A000FDF7EAFB0246BB6A9B1A3A681344FB61AF
:1051B000FDF7E2FBB861394B1B685B011B0DFA6917
:1051C00002FB03F37B6154E03B68B3F1FF3F50D037
:1051D000FDF7D2FB0246BB69D31AFA699A4202D99B
:1051E000FB69002B3DD1FB681B685A68FB681B6894
:1051F00022F0E0025A60FB685B68B3F5827F11D150
:10520000FB689B68B3F5004F04D0FB689B68B3F55F
:10521000806F07D1FB681B681A68FB681B6822F067
:1052200040021A60FB689B6AB3F5005F0FD1FB6810
:105230001B681A68FB681B6822F400521A60FB683E
:105240001B681A68FB681B6842F400521A60FB680E
:10525000012283F85120FB68002283F850200323A9
:1052600017E07B69002B01D10023FB617B69013BC7
:105270007B61FB681B689A68BB681340BA689A42F6
:105280000CBF01230023DBB21A46FB799A429BD163
:10529000002318462037BD4680BD00BF34000020E3
:1052A00080B586B002AFF860B9607A60FB685B6871
:1052B000B3F5827F11D1FB689B68B3F5004F04D032
:1052C000FB689B68B3F5806F07D1FB681B681A68A1
:1052D000FB681B6822F040021A60FB685B68B3F54C
:1052E000827F17D1FB689B68B3F5806F12D17B6812
:1052F0000093BB6800220121F868FFF749FF0346CD
:10530000002B1AD0FB685B6D43F02002FB685A65E6
:10531000032313E07B680093BB6800228021F868B8
:10532000FFF736FF0346002B07D0FB685B6D43F0A9
:105330002002FB685A65032300E00023184610375B
:10534000BD4680BD80B586B002AFF860B9607A60B6
:105350007B680093BB6801220221F868FFF718FF01
:105360000346002B07D0FB685B6D43F02002FB680F
:105370005A65032313E07B680093BB6800228021F9
:10538000F868FFF705FF0346002B07D0FB685B6D4D
:1053900043F02002FB685A65032300E0002318460F
:1053A0001037BD4680BD80B582B000AF78607B68A5
:1053B000002B01D1012341E07B6893F83D30DBB243
:1053C000002B06D17B68002283F83C207868FDF72B
:1053D000DFF87B68022283F83D207B681A687B68CF
:1053E00004331946104600F00DFD7B68012283F856
:1053F00046207B68012283F83E207B68012283F8E7
:105400003F207B68012283F840207B68012283F8DB
:1054100041207B68012283F842207B68012283F8C7
:1054200043207B68012283F844207B68012283F8B3
:1054300045207B68012283F83D2000231846083769
:10544000BD4680BD80B485B000AF78607B6893F8BE
:105450003D30DBB2012B01D0012332E07B68022218
:1054600083F83D207B681B68184A93420ED07B6806
:105470001B68B3F1804F09D07B681B68144A9342C4
:1054800004D07B681B68134A934211D17B681B6868
:105490009B6803F00703FB60FB68062B10D07B685A
:1054A0001B681A687B681B6842F001021A6007E0FB
:1054B0007B681B681A687B681B6842F001021A60EF
:1054C000002318461437BD4680BC7047002C0140AD
:1054D000000400400008004080B483B000AF786052
:1054E0007B681B681A6A41F211131340002B0FD11D
:1054F0007B681B681A6A40F244431340002B07D1B3
:105500007B681B681A687B681B6822F001021A60BE
:105510007B68012283F83D20002318460C37BD46E6
:1055200080BC704780B582B000AF78607B68002B8C
:1055300001D1012341E07B6893F83D30DBB2002BC1
:1055400006D17B68002283F83C20786800F039F8A7
:105550007B68022283F83D207B681A687B680433ED
:105560001946104600F04EFC7B68012283F8462065
:105570007B68012283F83E207B68012283F83F206C
:105580007B68012283F840207B68012283F8412058
:105590007B68012283F842207B68012283F8432044
:1055A0007B68012283F844207B68012283F8452030
:1055B0007B68012283F83D20002318460837BD464A
:1055C00080BD80B483B000AF786000BF0C37BD46AB
:1055D00080BC704780B586B000AFF860B9607A6073
:1055E0007B800023FB75BB68002B09D1FB6893F817
:1055F0003E30DBB2022B0CBF01230023DBB222E0E2
:10560000BB68042B09D1FB6893F83F30DBB2022B57
:105610000CBF01230023DBB215E0BB68082B09D1C6
:10562000FB6893F84030DBB2022B0CBF0123002350
:10563000DBB208E0FB6893F84130DBB2022B0CBF11
:1056400001230023DBB2002B01D0022353E1BB680E
:10565000002B09D1FB6893F83E30DBB2012B0CBF65
:1056600001230023DBB222E0BB68042B09D1FB68D5
:1056700093F83F30DBB2012B0CBF01230023DBB2D8
:1056800015E0BB68082B09D1FB6893F84030DBB20A
:10569000012B0CBF01230023DBB208E0FB6893F869
:1056A0004130DBB2012B0CBF01230023DBB2002B06
:1056B00024D07B68002B02D07B88002B01D10123F2
:1056C00019E1BB68002B04D1FB68022283F83E205D
:1056D00016E0BB68042B04D1FB68022283F83F204C
:1056E0000EE0BB68082B04D1FB68022283F840203F
:1056F00006E0FB68022283F8412001E00123FAE082
:10570000BB680C2B00F2AE8001A252F823F000BF60
:105710004557000865580008655800086558000896
:105720008D5700086558000865580008655800083E
:10573000D5570008655800086558000865580008E6
:105740001D580008FB685B6A6D4A9A62FB685B6AD9
:105750006C4ADA62FB685B6A6B4A1A63FB68586AD8
:105760007968FB681B6834331A467B88FDF77EFE38
:105770000346002B01D00123BDE0FB681B68DA68FB
:10578000FB681B6842F40072DA606EE0FB689B6A9B
:105790005B4A9A62FB689B6A5A4ADA62FB689B6AB8
:1057A000594A1A63FB68986A7968FB681B68383342
:1057B0001A467B88FDF75AFE0346002B01D00123D1
:1057C00099E0FB681B68DA68FB681B6842F480623A
:1057D000DA604AE0FB68DB6A494A9A62FB68DB6A86
:1057E000484ADA62FB68DB6A474A1A63FB68D86A90
:1057F0007968FB681B683C331A467B88FDF736FEE8
:105800000346002B01D0012375E0FB681B68DA68B2
:10581000FB681B6842F40062DA6026E0FB681B6BE1
:10582000374A9A62FB681B6B364ADA62FB681B6B6D
:10583000354A1A63FB68186B7968FB681B6840334C
:105840001A467B88FDF712FE0346002B01D0012388
:1058500051E0FB681B68DA68FB681B6842F4805201
:10586000DA6002E00123FB7500BFFB7D002B41D114
:10587000FB681B680122B968184600F04FFDFB6801
:105880001B68224A934207D1FB681B685A6CFB686D
:105890001B6842F400425A64FB681B681B4A93422F
:1058A0000ED0FB681B68B3F1804F09D0FB681B6802
:1058B000174A934204D0FB681B68164A934211D1E1
:1058C000FB681B689B6803F007033B613B69062B81
:1058D00010D0FB681B681A68FB681B6842F0010265
:1058E0001A6007E0FB681B681A68FB681B6842F0D7
:1058F00001021A60FB7D18461837BD4680BD00BF07
:10590000F35C00089B5D0008615C0008002C01400E
:10591000000400400008004080B586B000AFF86089
:10592000B9607A600023FB75FB6893F83C30012B6B
:1059300001D10223AEE0FB68012283F83C207B68A2
:105940000C2B00F29F8001A252F823F0815900082D
:10595000855A0008855A0008855A0008C159000870
:10596000855A0008855A0008855A0008035A00081D
:10597000855A0008855A0008855A0008435A0008CD
:10598000FB681B68B968184600F0AAFAFB681B6838
:105990009A69FB681B6842F008029A61FB681B6801
:1059A0009A69FB681B6822F004029A61FB681B6815
:1059B0009969BB681A69FB681B680A439A6164E0CD
:1059C000FB681B68B968184600F0F0FAFB681B68B2
:1059D0009A69FB681B6842F400629A61FB681B6865
:1059E0009A69FB681B6822F480629A61FB681B68F5
:1059F0009969BB681B691A02FB681B680A439A61B4
:105A000043E0FB681B68B968184600F039FBFB6887
:105A10001B68DA69FB681B6842F00802DA61FB6800
:105A20001B68DA69FB681B6822F00402DA61FB6814
:105A30001B68D969BB681A69FB681B680A43DA618D
:105A400023E0FB681B68B968184600F083FBFB681D
:105A50001B68DA69FB681B6842F40062DA61FB6864
:105A60001B68DA69FB681B6822F48062DA61FB68F4
:105A70001B68D969BB681B691A02FB681B680A436B
:105A8000DA6102E00123FB7500BFFB68002283F8A6
:105A90003C20FB7D18461837BD4680BD80B584B0DC
:105AA00000AF786039600023FB737B6893F83C306B
:105AB000012B01D10223B4E07B68012283F83C2052
:105AC0007B68022283F83D207B681B689B68BB6073
:105AD000BB6823F07703BB60BB6823F47F43BB60E4
